:020000040000FA
:1000000083160313FF308500831603130030860028
:1000100083160313003087008312031341309F00BF
:100020008316031302309F00831203130630B300BC
:10003000B30B1828831203131F15831203131F1900
:100040001F28831203139E0D9E1B1E141E08B5004D
:10005000B0000030C5086430B502031830283328DA
:100060001030C50038283008B5000030C5003828E9
:100070000A30C100C2014108C20AB50203183C2877
:100080000130C2024108B5074208C504350887009F
:040090004508860099
:00000001FF
